:020000021000EC
:10C0000000000220F9C2010021C3010023C3010086
:10C0100025C3010027C3010029C30100000000005F
:10C020000000000000000000000000002BC3010021
:10C030002DC30100000000002FC3010031C3010027
:10C0400033C3010033C3010033C3010033C3010014
:10C0500033C3010033C3010033C3010033C3010004
:10C0600033C3010033C3010033C3010033C30100F4
:10C0700033C3010033C3010033C3010033C30100E4
:10C0800033C3010033C3010033C3010033C30100D4
:10C0900033C3010033C3010033C3010033C30100C4
:10C0A00033C3010033C3010033C3010033C30100B4
:10C0B00033C3010033C30100000000000000000092
:10C0C00033C3010033C3010033C3010033C3010094
:10C0D00033C3010033C3010033C3010033C3010084
:10C0E00033C3010033C3010033C30100000000006B
:10C0F0000000000033C301000000000033C3010052
:10C10000000000000000000000000000000000002F
:10C11000000000000000000000000000000000001F
:10C12000000000000000000000000000000000000F
:10C1300000000000000000000000000000000000FF
:10C1400000000000000000000000000000000000EF
:10C1500000000000000000000000000000000000DF
:10C1600000000000000000000000000000000000CF
:10C1700000000000000000000000000000000000BF
:10C1800000000000000000000000000000000000AF
:10C19000000000000000000000000000000000009F
:10C1A000000000000000000000000000000000008F
:10C1B000000000000000000000000000000000007F
:10C1C000000000000000000000000000000000006F
:10C1D000000000000000000000000000000000005F
:10C1E000000000000000000000000000000000004F
:10C1F000000000000000000000000000000000003F
:10C200000348044B834202D0034B03B118477047E5
:10C21000081200200812002000000000054806490E
:10C220000B1AD90F01EBA301491002D0034B03B144
:10C230001847704708120020081200200000000074
:10C2400010B5064C237843B9FFF7DAFF044B13B15E
:10C250000448AFF300800123237010BD08120020B2
:10C260000000000018E3010008B5044B1BB10449AD
:10C270000448AFF30080BDE80840CFE700000000AD
:10C280000C12002018E30100A3F5803A704700BFAC
:10C29000154B002B08BF114B9D46FFF7F5FF002102
:10C2A0008B460F461148124A121A00F039FB0C4B0C
:10C2B000002B00D098470B4B002B00D09847002054
:10C2C000002104000D000B4800F038FA00F06AFA73
:10C2D0002000290000F098F800F036FA000008006D
:10C2E00000000000000000000000022008120020F2
:10C2F000C412002071C701000649074A074B9B1A68
:10C3000003DD043BC858D050FBDC00F0EDF8FFF72C
:10C31000BFFF000024E30100981100200812002054
:10C32000FEE7FEE7FEE7FEE7FEE7FEE7FEE7FEE7E5
:10C33000FEE7FEE7C30706D4830742BF2E4B0C225D
:10C34000C3F81827704770B44FF08043D3F84036D5
:10C35000DA0722D44FF0A0432749032240264FF4A6
:10C3600080754FF40074C3F81827C3F82027C1F86C
:10C370002427C3F83027C3F808654FF48052C3F868
:10C380000855C1F808458107C3F8082503D51A4B9D
:10C390000C22C3F8182770BC70474FF01023D3F855
:10C3A000043303F00703072BD4D1144B0122C3F845
:10C3B0000425D3F80024002AFBD04FF010210020E0
:10C3C000D1F804230D4C22F0070242F00402C1F818
:10C3D0000423C3F80405D4F80034002BFBD0BFF3CA
:10C3E0004F8F0749074BCA6802F4E0621343CB60E2
:10C3F000BFF34F8F00BFFDE70003005000E0014096
:10C4000000ED00E00400FA052DE9F04F324B334E09
:10C41000DFF8D0B00FCB85B004AC04E90F000120E9
:10C42000FFF788FF2E4B00240C22C3F818279A46EA
:10C4300046F00106A046A146DAF810355B0627D47F
:10C44000584600F0D5FA04AB4B4453F8103CA342D5
:10C4500034DD01274FF0A04307FA08F7C3F8087549
:10C460004FF4FA654FF47A40B047013DFAD14FF0EE
:10C47000A0434FF4FA65C3F80C754FF47A40B04707
:10C48000013DFAD1DAF810355B0604F10104D7D585
:10C490004FF0A0430125022004210822C3F80C55C7
:10C4A000C3F80C05C3F80C15C3F80C2504AB4B44BA
:10C4B00053F8103C002BD8BF0024BDE708F1010859
:10C4C00008F003084FF4FA644FF47A40B047013C97
:10C4D000FAD14FEA8809AFE744E2010060E20100C7
:10C4E0000003005030E2010010B4814B1B68082BA0
:10C4F00021D0804AD2F8883043F47003C2F88830E3
:10C50000BFF34F8FBFF36F8F794B1B68082B00F081
:10C51000AA804FF01023D3F80022002AC0F2B68080
:10C52000D3F80432002BC0F2B180734B734A1A6007
:10C530005DF8044B70474FF080414FF0805200206F
:10C54000C1F80C016E4BC1F81001C1F83805D2F8E2
:10C550000414C3F82015D2F80814C3F82415D2F82F
:10C560000C14C3F82815D2F81014C3F82C15D2F8FF
:10C570001414C3F83015D2F81814C3F83415D2F8CF
:10C580001C14C3F84015D2F82014C3F84415D2F88F
:10C590002414C3F84815D2F82814C3F84C15D2F85F
:10C5A0002C14C3F85015D2F83014C3F85415D2F82F
:10C5B0003414C3F86015D2F83814C3F86415D2F8EF
:10C5C0003C04C3F868054F49D2F84004C3F86C0531
:10C5D0000968D2F84424C3F87025052937D84A4B96
:10C5E0005B5C13B1494B4A4A1A604A4B5B5C63B1CE
:10C5F0003F4B49491B68434AFB20C1F81805082BEB
:10C6000011687FF476AF052921D8444B5B5C93B168
:10C610004348444B364C02681B682468394922F071
:10C620000F0203F00F031343082C096803607FF423
:10C6300060AF05290BD83C4B5B5C43B12C4B3B4AAC
:10C640001B684FF40071082B11607FF452AF4FF05C
:10C650008043D3F80024D2077FF54BAF6FF001027F
:10C66000C3F8002445E7274B1B68052B08D94FF07A
:10C6700010224FF08043D2F80822C3F8582548E72B
:10C680002B4AD35C002B3FF444AFF0E7294A012347
:10C69000C2F80435D2F80034002BFBD04FF0102341
:10C6A0001221244AC3F80012D2F80034002BFBD028
:10C6B0004FF0102312211F4AC3F80412D2F800349D
:10C6C000002BFBD000231B49C2F80435D1F80034FD
:10C6D000002BFBD0BFF34F8F0649174BCA6802F4FB
:10C6E000E0621343CB60BFF34F8F00BFFDE700BF95
:10C6F0003001001000ED00E0981100200090D00300
:10C7000000C000403401001070E201008C5600406F
:10C710004881030070E2010000F0004070E2010077
:10C72000E40E00405802001070E201004096024002
:10C7300068E2010000E001400400FA050023014620
:10C740001A46184600F070B908B5074B044613B1F5
:10C75000002100F0B9F9054B1868836A03B19847C6
:10C76000204601F057FD00BFC9CA010078E2010070
:10C7700038B50A4C0A4D641BA4100AD004F180435A
:10C78000013B05EB8305013C55F804399847002C23
:10C79000F9D1BDE8384001F045BD00BF08120020C6
:10C7A0000412002070B50D4E0D4D761BB61006D04C
:10C7B0000024013455F8043B9847A642F9D1094EAC
:10C7C000094D761B01F028FDB61006D00024013477
:10C7D00055F8043B9847A642F9D170BD00120020DD
:10C7E000001200200412002000120020844641EABA
:10C7F000000313F003036DD1403A41D351F8043BD9
:10C8000040F8043B51F8043B40F8043B51F8043B2A
:10C8100040F8043B51F8043B40F8043B51F8043B1A
:10C8200040F8043B51F8043B40F8043B51F8043B0A
:10C8300040F8043B51F8043B40F8043B51F8043BFA
:10C8400040F8043B51F8043B40F8043B51F8043BEA
:10C8500040F8043B51F8043B40F8043B51F8043BDA
:10C8600040F8043B51F8043B40F8043B51F8043BCA
:10C8700040F8043B51F8043B40F8043B403ABDD239
:10C88000303211D351F8043B40F8043B51F8043BDB
:10C8900040F8043B51F8043B40F8043B51F8043B9A
:10C8A00040F8043B103AEDD20C3205D351F8043B6A
:10C8B00040F8043B043AF9D2043208D0D2071CBF36
:10C8C00011F8013B00F8013B01D30B88038060465F
:10C8D000704700BF082A13D38B078DD010F00303D5
:10C8E0008AD0C3F10403D21ADB071CBF11F8013B45
:10C8F00000F8013B80D331F8023B20F8023B7BE794
:10C90000043AD9D3013A11F8013B00F8013BF9D2BE
:10C910000B7803704B7843708B7883706046704758
:10C92000F0B4860746D0541E002A3CD0CAB2034653
:10C9300002E014F1FF3436D303F8012B9D07F8D140
:10C94000032C29D9CDB245EA05250F2C45EA05452A
:10C9500033D9A4F11006360903F1200707EB0617B7
:10C9600003F1100242E9045542E902551032BA427D
:10C97000F8D1721C14F00C0F03EB021204F00F0636
:10C9800013D0331F23F003030433134442F8045B32
:10C990009342FBD106F003042CB1C9B21C4403F846
:10C9A000011B9C42FBD1F0BC704734461346002C5F
:10C9B000F3D1F8E714460346C2E71A462646E0E7F5
:10C9C0000EB410B5044683B008B1836963B106A8FC
:10C9D00003460190059AA168204600F0C3FA03B00F
:10C9E000BDE8104003B0704700F0A4F9EFE700BFC6
:10C9F0000FB410B50B4B1C6882B00CB1A36963B1C6
:10CA000005A803460190049AA168204600F0AAFAFE
:10CA100002B0BDE8104004B07047204600F08AF92B
:10CA2000EEE700BF9C1100202DE9F843224C256859
:10CA30000DB36C681F2C3BDC984691460F460646AA
:10CA400088B1D5F8880028B3D0F8003140F8249098
:10CA50000122A24000EB84011343022EC0F80031F2
:10CA6000C1F8808010D0A31C01346C6045F823709D
:10CA70000020BDE8F883114E114D2560002ED8D05E
:10CA80003468C5F88840D4E7D0F804311A43C0F8B8
:10CA90000421E8E70B4B5BB14FF48470AFF30080E7
:10CAA00030B100236C68C0E94033C5F88800CDE799
:10CAB0004FF0FF30DDE700BFB012002000000000A3
:10CAC00024120020000000002DE9F04FDFF89080D4
:10CAD00083B0D8F8005001900F464FF0010A8DB195
:10CAE0006C68D5F88860013C0CD405F1080B67B17F
:10CAF0002EB106F1800353F82430BB4205D014F167
:10CB0000FF34F4D203B0BDE8F08F6B685BF82420EB
:10CB1000013BA34216BF00236C604BF82430002A6F
:10CB2000EDD0D5F80490B6B1D6F800110AFA04F3A6
:10CB30000B4210D0D6F8040156F8241003420CD151
:10CB4000019890476B68D8F800204B4501D1AA4264
:10CB5000D5D01546C3E79047F4E708469047F1E77C
:10CB6000B012002000207047014900F029B900BF31
:10CB7000F5D901000020704770B54A1E682505FBF5
:10CB800002F50E4605F1740100F044F9044640B187
:10CB900000210C30666005F168022160A060FFF79B
:10CBA000BFFE204670BD00BF1E4B70B51D68AB694F
:10CBB000064643B34835D5E90134013B05D51EE0AF
:10CBC000013B5A1C04F1680419D0B4F90C20002A66
:10CBD000F6D10025144B6566C4E90055A560C4E98B
:10CBE0000455A5612946E360082204F15C00FFF7C3
:10CBF00097FEC4E90D55C4E91255204670BD2C6856
:10CC00002CB12546D7E7284600F010F8D2E70421DA
:10CC10003046FFF7B1FF044628600028F1D10C230D
:10CC20003360EAE778E201000100FFFF2DE9F84FE9
:10CC3000334B34491A68816290424FF00003C0E9D7
:10CC40001233036504BF012383610546FFF7ACFF80
:10CC500068602846FFF7A8FFA8602846FFF7A4FFF2
:10CC60006E68E86000240423F3607466C6E900443B
:10CC7000B460C6E90444B461214606F15C000822B0
:10CC8000FFF74EFEDFF888B0AF68DFF888A0DFF866
:10CC90008890DFF888801C4BC6F83080C6E9086BA6
:10CCA000C6E90AA92146FB6008227C66C7E9004460
:10CCB000BC60C7E90444BC6107F15C00FFF730FECB
:10CCC000EE68124BC7F83080C7E9087BC7E90AA9AC
:10CCD0002146F3607466C6E90044B460C6E90444C2
:10CCE000B46106F15C000822FFF71AFE0123C6E9D1
:10CCF000086BC6E90AA9C6F83080AB61BDE8F88FB9
:10CD000078E2010069CB0100090001001200020075
:10CD100029D6010051D6010091D60100B1D60100FB
:10CD2000024B0349186800F04BB800BF78E20100DD
:10CD3000F5D90100836903B978E77047704700BFF0
:10CD4000704700BF704700BF704700BF024B0349E8
:10CD5000186800F00FB800BF9C11002065CB0100DF
:10CD6000024B0349186800F005B800BF9C11002071
:10CD700075CB01002DE9F04110F148071BD0884622
:10CD80000026D7E90154013D0FD4A389012B05F1F9
:10CD9000FF3506D9B4F90E300133204601D0C04723
:10CDA00006436B1C04F16804EFD13F68002FE8D103
:10CDB0003046BDE8F0813E463046BDE8F08100BF18
:10CDC0002DE9F84310F148071FD0884606464FF07A
:10CDD0000009D7E90154013D11D4A389012B05F1C4
:10CDE000FF3508D9B4F90E3001332146304602D060
:10CDF000C04749EA00096B1C04F16804EDD13F68A3
:10CE0000002FE6D14846BDE8F883B9464846BDE85C
:10CE1000F88300BFF8B5CD1C25F0030508350C2DAF
:10CE200038BF0C25002D064633DBA94231D82A4FE6
:10CE300001F0EEF83A6852B113685B1B04D43FE08E
:10CE400023685B1B29D522465468002CF8D17968E9
:10CE500000293BD02946304600F0D4FB431C28D0A3
:10CE6000C41C24F00304A04205D0211A304600F06F
:10CE7000C9FB01301DD02560304601F0CBF804F12C
:10CE80000B0020F00700231DC21A01D01B1AA3506B
:10CE9000F8BD0C2232600020F8BD0B2B05D8A24251
:10CEA000636811D05360E7E7144623601C44256093
:10CEB000E2E70C233046336001F0ACF80020F8BD07
:10CEC0000B2BF1D8536814463B60D5E7304600F091
:10CED00099FB7860BEE700BFB41200209368013B65
:10CEE000002B936011DA10B49469A34209DB0A297C
:10CEF00007D01368581C1060197008465DF8044B81
:10CF000070475DF8044B00F0D7BB1368581C1060E5
:10CF100019700846704700BF9BB1F8B513440F461F
:10CF200006465D1E541E01E0AC4208D03A4614F895
:10CF3000011F3046FFF7D2FF431CF5D1F8BD00209A
:10CF4000F8BD0020704700BF936810B5144613B9B0
:10CF50005360184610BD00F08FFD0023C4E9013373
:10CF600010BD00BF2DE9F04F9FB08B4690461C4688
:10CF7000039018B18369002B00F0B780A24B9B454A
:10CF800000F0B980A14B9B4500F0C780A04B9B45AA
:10CF900004BF039BD3F80CB0BBF80C30180740F16A
:10CFA000B280DBF81030002B00F0AD8030238DF81C
:10CFB000323098F800300594002120220B918DF832
:10CFC0003120944E0127002B00F08780252B00F0A4
:10CFD0001581454603E0252B00F0A38025466B789C
:10CFE0006C1C002BF7D1B4EB080A76D042465346AE
:10CFF00059460398FFF790FF01306ED00B9B6A787B
:10D0000053440B93002A68D000234FF0FF320134C1
:10D010000693CDE908338DF85B301C93079205E049
:10D02000069A07FA03F313432C4606932546052276
:10D0300015F8011B304600F033FFAA46831B002879
:10D04000EED1069BD90644BF20228DF85B202178C3
:10D050001A0744BF2B228DF85B202A2966D1059A36
:10D060001168043200290592C0F29D80099161780F
:10D07000A51C2E2973D0684C0322204600F010FF17
:10D08000002800F08680001B069B402404FA00F074
:10D090000343069305F10108297860488DF83010A4
:10D0A000062200F0FDFE002800F083805C4B002B80
:10D0B00072D005AB00935A465A4B039806A9AFF3BA
:10D0C00000808146B9F1FF3F07D00B9B4B440B9387
:10D0D00098F80030002B7FF479AFBBF80C305B067A
:10D0E00018D40B981FB0BDE8F08FFFF723FE464B16
:10D0F0009B457FF447AF039BD3F804B0BBF80C30DB
:10D1000018073FF54EAF5946039800F04BFB002837
:10D110003FF44CAF4FF0FF30E4E7039BD3F808B087
:10D120003AE7B4EB080A3FF46FAF5FE7A1F13002D2
:10D13000092A88BFA2469CD8099B01E02C460135EC
:10D14000297803EB830302EB4303A1F13002092AA0
:10D15000AA46F3D92E2904F1020509938BD19AF836
:10D1600001102A292FD1059B9AF802101A680792FC
:10D170000433002A05930AF103050AF1020338DBA0
:10D18000254C032220469A4600F08AFE00287FF4B0
:10D190007AAFA84655467FE7059B073323F0070380
:10D1A0000833059391E7494243F00203099106933E
:10D1B0005DE705AB00935A461A4B039806A900F0A9
:10D1C000D5F881467EE7A1F130020023092A0793B2
:10D1D00001D915E05546697803EB830302EB43035D
:10D1E000A1F13002092A05F1010AF3D902350793AA
:10D1F00041E74FF0FF329A4607923CE7444603E787
:10D20000AA46013537E700BFBCE201009CE20100FD
:10D210007CE20100DCE20100E4E20100E8E201005E
:10D220000000000019CF010010B4044C13460A4658
:10D23000014620685DF8044BFFF794BE9C11002066
:10D240002DE9F0470C4691460A698968DDF820808F
:10D250008A42B8BF0A46C9F8002094F8431006462F
:10D260001F4611B10132C9F80020236899065CD528
:10D27000D9F800200232C9F80020236813F0060F05
:10D2800019461DD1E1688A1A002AD8BF194617DD50
:10D2900004F1190A002505E0E368D9F800209B1A7B
:10D2A000AB420CDD0123524639463046C0470130BF
:10D2B00005F10105F0D14FF0FF30BDE8F08721689E
:10D2C00094F84330003318BF01238A060AD5E118C9
:10D2D0005A1C302081F84300224494F8451082F80B
:10D2E0004310023304F1430239463046C04701304F
:10D2F000E1D02368A268216903F00603042B1DD046
:10D300008A4226DD4FF00009521A91441A34002552
:10D3100001E04D451DDA0123224639463046C0471B
:10D32000013005F10105F4D1C5E713F0060F13D064
:10D3300094F84330003318BF0123D3E7D9F8000035
:10D34000E3688A42A3EB000323EAE379DCDC002BE9
:10D35000DCDC0020BDE8F087E168D9F800208A1AFB
:10D36000002AD8BF194693DCAAE700BF2DE9F04395
:10D370000C46097E85B06E29064617460C989846DD
:10D3800004F1430E6DD039D9732900F0F68044D9E9
:10D39000752900F00481782940F0118178232268F2
:10D3A000DFF858C284F845300168150651F8043B8F
:10D3B000016040F1A180D10744BF42F02002226009
:10D3C000002B00F093801022002184F84310606845
:10D3D000A0600028C0F2C880216821F0040121600B
:10D3E000002B40F0A380002840F0C0807546082A3A
:10D3F00000F0AC80AEEB0503236141E0632900F04F
:10D40000E5801AD8002938D0582940F0D88084F80F
:10D4100045102268DFF8E8C1C6E76F2900F0BF8039
:10D42000702940F0CC802268DFF8D0C142F02002A1
:10D430007823226084F84530B6E7642902D0692950
:10D4400040F0BD8022680368110603F1040557D53A
:10D45000196805600B46002959DBDFF8A4C10A22D0
:10D46000B5E70368226861691D1D056015061B6824
:10D4700002D4500600F1BD80196000237546236177
:10D48000CDF800803B4603AA21463046FFF7D8FE80
:10D49000013020D02A46236939463046C047013042
:10D4A00019D022680398E368920719D51A1A002A3E
:10D4B00016DD04F11909002504E0E36803981A1A3F
:10D4C000AA420DDD01234A4639463046C0470130A5
:10D4D00005F10105F1D14FF0FF3005B0BDE8F08353
:10D4E0009842B8BF184605B0BDE8F083226822F024
:10D4F00020022260102267E7500648BF9BB25AE71D
:10D500005106A5D5B3F9003005601946A3E7616857
:10D51000A1602D200029C3F1000384F8430002DB41
:10D5200022F004022260DFF8D8C00A22754600E02B
:10D530000B46B3FBF2F102FB113093421CF80000E2
:10D5400005F8010DF4D2082A7FF454AF2368DB07F5
:10D550007FF550AF626823699A423FF74BAF3023A3
:10D5600005F8013C013D45E7002BDFD19CF8003078
:10D5700084F8423004F1420539E703686268191DF6
:10D5800001601D680021284600F08AFC002832D086
:10D59000401B60602061002384F8433070E72268FC
:10D5A000036812F0800F03F104051AD01B680560B0
:10D5B0006F290CBF08220A22DFF844C004E70123C8
:10D5C00084F84210236104F14205E4E703681A6815
:10D5D000191D0123016004F1420584F842202361F2
:10D5E000D9E712F0400F0DBF1B6805601B8805606E
:10D5F000DEE7198041E76068CCE700BF04E3010083
:10D60000F0E2010038B5074C0023054608462360C8
:10D6100000F0EAFD431C00D038BD2368002BFBD08E
:10D620002B6038BDC012002010B50C46B1F90E10A9
:10D6300000F06EFD002803DB636D0344636510BDDD
:10D64000A38923F48053A38110BD00BF002070473D
:10D650002DE9F0411646B1F90C201F46D3050C46C2
:10D660000546B1F90E1009D422F48052A2813B463E
:10D6700032462846BDE8F04100F07EB80022022381
:10D6800000F07EFBB4F90C20B4F90E10ECE700BFFB
:10D6900010B50C46B1F90E1000F072FBA389421CC4
:10D6A0000EBF23F4805343F480536065A38110BD03
:10D6B000B1F90E1000F0F6B8F8B50D46144606465E
:10D6C00008B1836943B3254B9C422AD0244B9C422A
:10D6D00029D0244B9C4208BFF468A389A269A260A8
:10D6E0001A0722D5236903B322686169D31AEDB200
:10D6F00099422F4629DD0133A168501C0139A160F0
:10D700002060157062699A4216D0A389DB0701D5A3
:10D710000A2D11D03846F8BDFFF70CFB0F4B9C4289
:10D72000D4D17468D9E7B468D7E72146304600F011
:10D7300039F838B92369D7E72146304600F05AF95D
:10D740000028E7D04FF0FF37E4E72146304600F0ED
:10D7500051F90028F6D122680123CDE7BCE201008F
:10D760009CE201007CE20100024B0A460146186877
:10D77000FFF7A2BF9C11002070B50D46084C114662
:10D7800006461A4628460023236000F03BFD431C52
:10D7900000D070BD2368002BFBD0336070BD00BF8C
:10D7A000C01200203B4B70B51D6806460C460DB1FB
:10D7B000AB69DBB1384B9C421ED0384B9C424AD0FF
:10D7C000374B9C4208BFEC68B4F90C2093B21907A0
:10D7D00018D5206908B313F001022CD06369002228
:10D7E0005B42A361A26060B3002070BD2846FFF7D2
:10D7F000A1FA294B9C42E0D16C68B4F90C2093B299
:10D800001907E6D4DD063CD5580726D4206942F036
:10D810000803A3819BB20028DDD103F42072B2F586
:10D82000007FD8D03046214600F0EEFAA389206967
:10D8300013F00102D2D1990758BF6269A260002893
:10D84000D2D1B4F90C301A06CFD543F04003A381EE
:10D850004FF0FF3070BDAC68B6E7616B51B104F1B9
:10D860004403994204D0304600F0D6FBB4F90C20B2
:10D870000023636300232069636022F02402206098
:10D88000C5E742F04002092333604FF0FF30A28128
:10D8900070BD00BF9C110020BCE201009CE20100B1
:10D8A0007CE2010038B5074C00230546084623609A
:10D8B00000F072FC431C00D038BD2368002BFBD065
:10D8C0002B6038BDC01200208B891A072DE9F0416A
:10D8D0000C46804641D44A68002A59DDE66A002E8B
:10D8E00053D00022D8F80050216AC8F8002013F461
:10D8F000805251D101234046B047431C5FD0A389D9
:10D90000E66A216A5F0705D56268636B801A0BB10E
:10D91000236CC01A024600234046B047461C45D13E
:10D92000D8F80030B4F90C20002B55D01D2B01D0B5
:10D93000162B5AD123690022C4E90032616BC8F862
:10D94000005011B304F14403994202D0404600F064
:10D9500063FB00206063BDE8F0810E69AEB10D6825
:10D960000E6099070CBF63690023AD1BA3600AE03A
:10D970002B463246A76A216A4046B8470028A5EBE5
:10D98000000506440ADD002DF2DC0020BDE8F08130
:10D990000A6C002AA2DCF8E7606DB3E7A38943F0C4
:10D9A0004003A3814FF0FF30BDE8F0812269A389D5
:10D9B000226000226260DA04C0D56065BEE7D8F854
:10D9C0000030002B9BD01D2B0CD0162B0AD0A38926
:10D9D00043F04003A381D9E72169C4E90013D304CC
:10D9E000ACD5EAE7C8F80050CFE742F04002A28188
:10D9F000CCE700BF0B6923B310B5044682B008B171
:10DA00008369BBB1104B994212D0104B994216D08A
:10DA10000F4B994208BFE168B1F90C302BB1204699
:10DA200002B0BDE81040FFF74FBF002002B010BDAC
:10DA30006168F1E70191FFF77DF90199E2E7A168DB
:10DA4000EAE70020704700BFBCE201009CE2010051
:10DA50007CE2010020B1054B01461868FFF7CABF00
:10DA6000034B04491868FFF7ABB900BF9C110020B5
:10DA700078E20100F5D901009368002B00F00281E3
:10DA80002DE9F04FB1F90C309BB20C46190783B069
:10DA90008246904635D522699AB313F00202D8F82F
:10DAA00000603DD00027D4F828B0D4F820C0DFF8BB
:10DAB000CC923D464D452B463A4628BF4B466146E3
:10DAC0005046D5B1D847002840F3D280D8F8083066
:10DAD0001B1A07442D1AC8F80830002B00F0B78035
:10DAE000D4F820C0D4F828B04D452B463A4628BF7C
:10DAF0004B4661465046002DE4D1D6E90075083604
:10DB0000D8E721465046FFF74DFE002840F030810F
:10DB1000B4F90C30D8F800609BB213F00202C1D106
:10DB200013F0010940F0B080A76820684D46002D31
:10DB300054D09A0540F1BC80AF42BB4600F2E7806A
:10DB400013F4906F2FD0D4E9041707EB4707A0EB2D
:10DB5000010B07EBD777681C7F105844B8423A4650
:10DB600084BF07463A465B0540F1E98011465046BE
:10DB7000FFF750F9002800F0F5805A46216901901E
:10DB8000FEF734FEA289019B22F4906242F08002EB
:10DB9000A281A7EB0B0203EB0B00676123612060FE
:10DBA000A2602F46AB465A46494600F0C9F9A26822
:10DBB0002368D21B5B442F46A26023600025D8F85F
:10DBC0000830DB1BB944C8F80830002B3FD0B4F94B
:10DBD0000C30A76820689BB2002DAAD1D6E9009529
:10DBE0000836A4E70BF1080353E902679B460833A4
:10DBF000002FF9D03A460A21304600F051F90028AA
:10DC000053D00130A0EB06094B46D4E9041220683A
:10DC1000BB4228BF3B46884203D9A5681544AB42A6
:10DC200019DC9A427DDC1346A56A216A32465046C9
:10DC3000A847051E1CDDB9EB05096BD00120D8F8FB
:10DC400008305B1B2E447F1BC8F8083013BB002034
:10DC500003B0BDE8F08F31462A4600F071F9236821
:10DC60002B44236021465046FFF7C4FE0028E2D033
:10DC7000B4F90C3043F040034FF0FF30A38103B000
:10DC8000BDE8F08F00207047334691461046174696
:10DC90004E469B46002FA5D00028B5D13A460A2112
:10DCA000304600F0FDF80028ABD17B1C9946ACE76C
:10DCB0002369834215D36169A94212D82E4BA76A02
:10DCC0009D4294BF2B466FF000434A4693FBF1F30D
:10DCD000504601FB03F3216AB847071EC8DDED1B60
:10DCE0006DE7AF4228BF2F463A46494600F028F973
:10DCF000A3682268DB1B3A44A3602260002BEED1AC
:10DD000021465046FFF776FE0028E8D0B0E72F46C0
:10DD1000AB4648E721465046FFF76CFE00288ED000
:10DD2000A6E71A463146019300F00AF9019BA16863
:10DD30002268C91A1A44A16022601D467BE750463A
:10DD400000F0C0F9034600287FF423AF2169504654
:10DD500000F062F9B4F90C300C2223F08003CAF809
:10DD6000002087E70C23CAF80030B4F90C3081E7B3
:10DD70004FF0FF306CE700BFFEFFFF7F00FCFF7F2E
:10DD800070B50D46084C114606461A462846002333
:10DD9000236000F019FA431C00D070BD2368002BEB
:10DDA000FBD0336070BD00BFC012002070B50C46C0
:10DDB000B1F90E10002996B016461D4613DB6A46CF
:10DDC00000F0BCF900280EDB019A02F47042A2F5C3
:10DDD0000052B2FA82F252094FF4806300202A60A6
:10DDE000336016B070BDA38900221B062A6004D5DB
:10DDF00040230020336016B070BD4FF480630020D4
:10DE0000336016B070BD00BF8A8992070B4606D5F5
:10DE100001F1470201211A60C3E90421704770B57E
:10DE200082B001AB6A460C460646FFF7BFFF009979
:10DE300005463046FEF7EEFFB4F90C3070B11649D6
:10DE4000B162019A0099206043F08003A381C4E984
:10DE500004018AB92B43A38102B070BD9A05FBD49B
:10DE600023F0030304F1470243F002030121A381DD
:10DE70002260C4E90421EFE73046B4F90E1000F047
:10DE800071F910B9B4F90C30E4E7A38923F0030366
:10DE900043F001031BB2DDE769CB01000000000085
:10DEA00001F0FF01102A2BDB10F0070F08D010F84B
:10DEB000013B013A8B422DD010F0070F42B3F6D14F
:10DEC000F0B441EA012141EA014122F007047FF068
:10DED00000070023F0E80256083C85EA010586EABF
:10DEE000010685FA47F5A3FA87F586FA47F6A5FAFB
:10DEF00087F68EB9EED1F0BC01F0FF0102F0070207
:10DF000032B110F8013B013A83EA010313B1F8D1B1
:10DF10000020704701387047002D06BF3546033892
:10DF2000073815F0010F07D1013015F4807F02BFCB
:10DF3000013015F4C03F0130F0BC0138704700BF1C
:10DF40008842F0B40DD98B1883420AD9841832B1B3
:10DF5000224613F8014D02F8014D9942F9D1F0BC67
:10DF600070470F2A0ED80346541E002AF7D00134FA
:10DF70000C44013B11F8012B03F8012FA142F9D108
:10DF8000F0BC704740EA01039B073BD1A2F11007A8
:10DF90003F0901F1200606EB071601F1100300F11D
:10DFA000100453F8105C44F8105C53F80C5C44F80F
:10DFB0000C5C53F8085C44F8085C53F8045C44F8C3
:10DFC000045C1033B34204F11004EAD17B1C1B0142
:10DFD00012F00C0F194402F00F05034415D0043D54
:10DFE000AD0803EB850C1C1F0E4656F8047B44F865
:10DFF000047F6445F9D10135AD002B44294402F07A
:10E000000302B1E7541E0346B1E72A46ACE700BF5E
:10E01000704700BF704700BF00293CD038B551F8A9
:10E02000043C0C1F002BB8BFE4180546FFF7F0FFB7
:10E03000234B1A682AB1A2420DD921686018824286
:10E0400023D0626028461C60BDE83840FFF7E2BF7D
:10E05000A34203D81A465368002BF9D1116850180F
:10E06000A04219D024D821686018834206D063608A
:10E0700054602846BDE83840FFF7CCBFD3E9000321
:10E080000144636021605460F3E7D2E90002014477
:10E0900062602160D6E770472068014450188342CF
:10E0A0001160E6D1D3E90003014453601160E0E759
:10E0B0000C232B602846BDE83840FFF7ABBF00BFFC
:10E0C000B412002009B3F8B51446CAB106460D468D
:10E0D00000F05AF8A04202D32F463846F8BD214638
:10E0E0003046FEF797FE07460028F6D0224629461E
:10E0F000FEF77CFB30462946FFF78EFF3846F8BD19
:10E100002746FFF789FF3846F8BD1146FEF782BE65
:10E1100070B50D46084C114606461A46284600239F
:10E12000236000F059F8431C00D070BD2368002B19
:10E13000FBD0336070BD00BFC012002038B50B4665
:10E14000074C0546114618460023236000F02CF8C2
:10E15000431C00D038BD2368002BFBD02B6038BD9A
:10E16000C012002038B5074C00230546084623603E
:10E1700000F022F8431C00D038BD2368002BFBD0F0
:10E180002B6038BDC012002051F8043C181F002B32
:10E19000BCBF0B58C0187047024B58221A604FF092
:10E1A000FF307047C0120020024B58221A604FF017
:10E1B000FF307047C0120020024B58221A60002026
:10E1C000704700BFC0120020024B58221A604FF067
:10E1D000FF307047C0120020024B58221A604FF0E7
:10E1E000FF307047C0120020044A05491368002B15
:10E1F00008BF0B461844106018467047BC12002038
:10E20000C8120020024B58221A604FF0FF307047AE
:10E21000C0120020FEE700BFF8B500BFF8BC08BC84
:10E220009E467047F8B500BFF8BC08BC9E467047D4
:10E23000427574746F6E20697320707265737365B4
:10E24000642E0A0007000000020000000000000029
:10E2500003000000000000000000000000000000BB
:10E260000338FDD8704700000000000001010000E5
:10E270000100000000000000A011002000000000CC
:10E28000000000000000000000000000000000008E
:10E29000000000000000000000000000000000007E
:10E2A000000000000000000000000000000000006E
:10E2B000000000000000000000000000000000005E
:10E2C000000000000000000000000000000000004E
:10E2D000000000000000000000000000232D302B93
:10E2E00020000000686C4C006566674546470000EA
:10E2F000303132333435363738394142434445467C
:10E30000000000003031323334353637383961623D
:0CE310006364656600000000000000006F
:08E31C006CDFFF7F010000002F
:10E324000090D003A011002000000000BCE2010016
:10E334009CE201007CE201000000000000000000FB
:10E3440000000000000000000000000000000000C9
:10E3540000000000000000000000000000000000B9
:10E3640000000000000000000000000000000000A9
:10E374000000000000000000000000000000000099
:10E38400000000000000000069C2010041C2010059
:040000031000C2F92E
:00000001FF
